{
	"data": {
		"bytecode": {
			"linkReferences": {},
			"object": "608060405234801561000f575f80fd5b50611bc68061001d5f395ff3fe608060405234801561000f575f80fd5b506004361061009c575f3560e01c8063bdb9db1a11610064578063bdb9db1a1461016d578063bf162d671461019d578063e0391b09146101ce578063f67c8a59146101ec578063fa294149146102085761009c565b8063114c57e5146100a057806318854939146100c0578063207a2dcd146100f057806324574a6014610120578063a7b7d3a714610151575b5f80fd5b6100a8610239565b6040516100b793929190610df6565b60405180910390f35b6100da60048036038101906100d59190610e6d565b610356565b6040516100e79190610e98565b60405180910390f35b61010a60048036038101906101059190610eb1565b61038f565b6040516101179190610fb3565b60405180910390f35b61013a60048036038101906101359190610eb1565b610463565b60405161014892919061101b565b60405180910390f35b61016b60048036038101906101669190611317565b610514565b005b61018760048036038101906101829190610e6d565b61080f565b604051610194919061141e565b60405180910390f35b6101b760048036038101906101b29190610e6d565b6108cc565b6040516101c5929190611438565b60405180910390f35b6101d6610919565b6040516101e391906115e2565b60405180910390f35b610206600480360381019061020191906116da565b610a28565b005b610222600480360381019061021d919061172d565b610a84565b604051610230929190611438565b60405180910390f35b5f60605f8060025f3373ffffffffffffffffffffffffffffffffffffffff1673ffffffffffffffffffffffffffffffffffffffff1681526020019081526020015f206040518060600160405290815f8201548152602001600182018054806020026020016040519081016040528092919081815260200182805480156102dc57602002820191905f5260205f20905b8154815260200190600101908083116102c8575b50505050508152602001600282015f9054906101000a900473ffffffffffffffffffffffffffffffffffffffff1673ffffffffffffffffffffffffffffffffffffffff1673ffffffffffffffffffffffffffffffffffffffff16815250509050805f01518160200151826040015193509350935050909192565b5f60035f8381526020019081526020015f205f9054906101000a900473ffffffffffffffffffffffffffffffffffffffff169050919050565b610397610c46565b60015f8481526020019081526020015f205f8381526020019081526020015f206040518060400160405290815f82015481526020016001820180546103db90611785565b80601f016020809104026020016040519081016040528092919081815260200182805461040790611785565b80156104525780601f1061042957610100808354040283529160200191610452565b820191905f5260205f20905b81548152906001019060200180831161043557829003601f168201915b505050505081525050905092915050565b6001602052815f5260405f20602052805f5260405f205f9150915050805f01549080600101805461049390611785565b80601f01602080910402602001604051908101604052809291908181526020018280546104bf90611785565b801561050a5780601f106104e15761010080835404028352916020019161050a565b820191905f5260205f20905b8154815290600101906020018083116104ed57829003601f168201915b5050505050905082565b5f600967ffffffffffffffff8111156105305761052f61104d565b5b60405190808252806020026020018201604052801561055e5781602001602082028036833780820191505090505b5090505f5b600981101561065757604051806040016040528084838151811061058a576105896117b5565b5b602002602001015181526020018583815181106105aa576105a96117b5565b5b602002602001015181525060015f8781526020019081526020015f205f8584815181106105da576105d96117b5565b5b602002602001015181526020019081526020015f205f820151815f0155602082015181600101908161060c919061197f565b50905050828181518110610623576106226117b5565b5b602002602001015182828151811061063e5761063d6117b5565b5b6020026020010181815250508080600101915050610563565b505f60405180606001604052808681526020018381526020013373ffffffffffffffffffffffffffffffffffffffff1681525090508060025f3373ffffffffffffffffffffffffffffffffffffffff1673ffffffffffffffffffffffffffffffffffffffff1681526020019081526020015f205f820151815f015560208201518160010190805190602001906106ee929190610c5f565b506040820151816002015f6101000a81548173ffffffffffffffffffffffffffffffffffffffff021916908373ffffffffffffffffffffffffffffffffffffffff1602179055509050505f81908060018154018082558091505060019003905f5260205f2090600302015f909190919091505f820151815f01556020820151816001019080519060200190610784929190610c5f565b506040820151816002015f6101000a81548173ffffffffffffffffffffffffffffffffffffffff021916908373ffffffffffffffffffffffffffffffffffffffff16021790555050507f4cbf19e7fcb05e5b8d4f6812e6a5187967a8e1bd4ceb8f20072f8a4747f4cf7985833360405161080093929190610df6565b60405180910390a15050505050565b610817610caa565b61081f610caa565b5f805f90505b60128110156108c1575f91505f600a8661083f9190611a7b565b90505f5b60128110156108805784816012811061085f5761085e6117b5565b5b602002015182036108735760019350610880565b8080600101915050610843565b50826108a4578084836012811061089a576108996117b5565b5b6020020181815250505b600a866108b19190611aab565b9550508080600101915050610825565b508192505050919050565b5f81815481106108da575f80fd5b905f5260205f2090600302015f91509050805f015490806002015f9054906101000a900473ffffffffffffffffffffffffffffffffffffffff16905082565b60605f805480602002602001604051908101604052809291908181526020015f905b82821015610a1f578382905f5260205f2090600302016040518060600160405290815f8201548152602001600182018054806020026020016040519081016040528092919081815260200182805480156109b257602002820191905f5260205f20905b81548152602001906001019080831161099e575b50505050508152602001600282015f9054906101000a900473ffffffffffffffffffffffffffffffffffffffff1673ffffffffffffffffffffffffffffffffffffffff1673ffffffffffffffffffffffffffffffffffffffff16815250508152602001906001019061093b565b50505050905090565b5f610a338483610ac3565b905080610a75576040517f08c379a0000000000000000000000000000000000000000000000000000000008152600401610a6c90611b4b565b60405180910390fd5b610a7e83610bbb565b50505050565b6002602052805f5260405f205f91509050805f015490806002015f9054906101000a900473ffffffffffffffffffffffffffffffffffffffff16905082565b5f8060025f8473ffffffffffffffffffffffffffffffffffffffff1673ffffffffffffffffffffffffffffffffffffffff1681526020019081526020015f20600101805480602002602001604051908101604052809291908181526020018280548015610b4d57602002820191905f5260205f20905b815481526020019060010190808311610b39575b505050505090505f5b6009811015610bae57818181518110610b7257610b716117b5565b5b6020026020010151858260098110610b8d57610b8c6117b5565b5b602002015114610ba1575f92505050610bb5565b8080600101915050610b56565b5060019150505b92915050565b3360035f8381526020019081526020015f205f6101000a81548173ffffffffffffffffffffffffffffffffffffffff021916908373ffffffffffffffffffffffffffffffffffffffff1602179055507f0a3204bc33a281ed667abad174342fa0c82ae0b9fdad5b5f14319335acda3e6e3382604051610c3b929190611b69565b60405180910390a150565b60405180604001604052805f8152602001606081525090565b828054828255905f5260205f20908101928215610c99579160200282015b82811115610c98578251825591602001919060010190610c7d565b5b509050610ca69190610ccd565b5090565b604051806102400160405280601290602082028036833780820191505090505090565b5b80821115610ce4575f815f905550600101610cce565b5090565b5f819050919050565b610cfa81610ce8565b82525050565b5f81519050919050565b5f82825260208201905092915050565b5f819050602082019050919050565b610d3281610ce8565b82525050565b5f610d438383610d29565b60208301905092915050565b5f602082019050919050565b5f610d6582610d00565b610d6f8185610d0a565b9350610d7a83610d1a565b805f5b83811015610daa578151610d918882610d38565b9750610d9c83610d4f565b925050600181019050610d7d565b5085935050505092915050565b5f73ffffffffffffffffffffffffffffffffffffffff82169050919050565b5f610de082610db7565b9050919050565b610df081610dd6565b82525050565b5f606082019050610e095f830186610cf1565b8181036020830152610e1b8185610d5b565b9050610e2a6040830184610de7565b949350505050565b5f604051905090565b5f80fd5b5f80fd5b610e4c81610ce8565b8114610e56575f80fd5b50565b5f81359050610e6781610e43565b92915050565b5f60208284031215610e8257610e81610e3b565b5b5f610e8f84828501610e59565b91505092915050565b5f602082019050610eab5f830184610de7565b92915050565b5f8060408385031215610ec757610ec6610e3b565b5b5f610ed485828601610e59565b9250506020610ee585828601610e59565b9150509250929050565b5f81519050919050565b5f82825260208201905092915050565b5f5b83811015610f26578082015181840152602081019050610f0b565b5f8484015250505050565b5f601f19601f8301169050919050565b5f610f4b82610eef565b610f558185610ef9565b9350610f65818560208601610f09565b610f6e81610f31565b840191505092915050565b5f604083015f830151610f8e5f860182610d29565b5060208301518482036020860152610fa68282610f41565b9150508091505092915050565b5f6020820190508181035f830152610fcb8184610f79565b905092915050565b5f82825260208201905092915050565b5f610fed82610eef565b610ff78185610fd3565b9350611007818560208601610f09565b61101081610f31565b840191505092915050565b5f60408201905061102e5f830185610cf1565b81810360208301526110408184610fe3565b90509392505050565b5f80fd5b7f4e487b71000000000000000000000000000000000000000000000000000000005f52604160045260245ffd5b61108382610f31565b810181811067ffffffffffffffff821117156110a2576110a161104d565b5b80604052505050565b5f6110b4610e32565b90506110c0828261107a565b919050565b5f67ffffffffffffffff8211156110df576110de61104d565b5b602082029050602081019050919050565b5f80fd5b5f80fd5b5f67ffffffffffffffff8211156111125761111161104d565b5b61111b82610f31565b9050602081019050919050565b828183375f83830152505050565b5f611148611143846110f8565b6110ab565b905082815260208101848484011115611164576111636110f4565b5b61116f848285611128565b509392505050565b5f82601f83011261118b5761118a611049565b5b813561119b848260208601611136565b91505092915050565b5f6111b66111b1846110c5565b6110ab565b905080838252602082019050602084028301858111156111d9576111d86110f0565b5b835b8181101561122057803567ffffffffffffffff8111156111fe576111fd611049565b5b80860161120b8982611177565b855260208501945050506020810190506111db565b5050509392505050565b5f82601f83011261123e5761123d611049565b5b813561124e8482602086016111a4565b91505092915050565b5f67ffffffffffffffff8211156112715761127061104d565b5b602082029050602081019050919050565b5f61129461128f84611257565b6110ab565b905080838252602082019050602084028301858111156112b7576112b66110f0565b5b835b818110156112e057806112cc8882610e59565b8452602084019350506020810190506112b9565b5050509392505050565b5f82601f8301126112fe576112fd611049565b5b813561130e848260208601611282565b91505092915050565b5f805f6060848603121561132e5761132d610e3b565b5b5f61133b86828701610e59565b935050602084013567ffffffffffffffff81111561135c5761135b610e3f565b5b6113688682870161122a565b925050604084013567ffffffffffffffff81111561138957611388610e3f565b5b611395868287016112ea565b9150509250925092565b5f60129050919050565b5f81905092915050565b5f819050919050565b5f602082019050919050565b6113d18161139f565b6113db81846113a9565b92506113e6826113b3565b805f5b838110156114165781516113fd8782610d38565b9650611408836113bc565b9250506001810190506113e9565b505050505050565b5f610240820190506114325f8301846113c8565b92915050565b5f60408201905061144b5f830185610cf1565b6114586020830184610de7565b9392505050565b5f81519050919050565b5f82825260208201905092915050565b5f819050602082019050919050565b5f82825260208201905092915050565b5f6114a282610d00565b6114ac8185611488565b93506114b783610d1a565b805f5b838110156114e75781516114ce8882610d38565b97506114d983610d4f565b9250506001810190506114ba565b5085935050505092915050565b6114fd81610dd6565b82525050565b5f606083015f8301516115185f860182610d29565b50602083015184820360208601526115308282611498565b915050604083015161154560408601826114f4565b508091505092915050565b5f61155b8383611503565b905092915050565b5f602082019050919050565b5f6115798261145f565b6115838185611469565b93508360208202850161159585611479565b805f5b858110156115d057848403895281516115b18582611550565b94506115bc83611563565b925060208a01995050600181019050611598565b50829750879550505050505092915050565b5f6020820190508181035f8301526115fa818461156f565b905092915050565b5f67ffffffffffffffff82111561161c5761161b61104d565b5b602082029050919050565b5f61163961163484611602565b6110ab565b90508060208402830185811115611653576116526110f0565b5b835b8181101561167c57806116688882610e59565b845260208401935050602081019050611655565b5050509392505050565b5f82601f83011261169a57611699611049565b5b60096116a7848285611627565b91505092915050565b6116b981610dd6565b81146116c3575f80fd5b50565b5f813590506116d4816116b0565b92915050565b5f805f61016084860312156116f2576116f1610e3b565b5b5f6116ff86828701611686565b93505061012061171186828701610e59565b925050610140611723868287016116c6565b9150509250925092565b5f6020828403121561174257611741610e3b565b5b5f61174f848285016116c6565b91505092915050565b7f4e487b71000000000000000000000000000000000000000000000000000000005f52602260045260245ffd5b5f600282049050600182168061179c57607f821691505b6020821081036117af576117ae611758565b5b50919050565b7f4e487b71000000000000000000000000000000000000000000000000000000005f52603260045260245ffd5b5f819050815f5260205f209050919050565b5f6020601f8301049050919050565b5f82821b905092915050565b5f6008830261183e7fffffffffffffffffffffffffffffffffffffffffffffffffffffffffffffffff82611803565b6118488683611803565b95508019841693508086168417925050509392505050565b5f819050919050565b5f61188361187e61187984610ce8565b611860565b610ce8565b9050919050565b5f819050919050565b61189c83611869565b6118b06118a88261188a565b84845461180f565b825550505050565b5f90565b6118c46118b8565b6118cf818484611893565b505050565b5b818110156118f2576118e75f826118bc565b6001810190506118d5565b5050565b601f82111561193757611908816117e2565b611911846117f4565b81016020851015611920578190505b61193461192c856117f4565b8301826118d4565b50505b505050565b5f82821c905092915050565b5f6119575f198460080261193c565b1980831691505092915050565b5f61196f8383611948565b9150826002028217905092915050565b61198882610eef565b67ffffffffffffffff8111156119a1576119a061104d565b5b6119ab8254611785565b6119b68282856118f6565b5f60209050601f8311600181146119e7575f84156119d5578287015190505b6119df8582611964565b865550611a46565b601f1984166119f5866117e2565b5f5b82811015611a1c578489015182556001820191506020850194506020810190506119f7565b86831015611a395784890151611a35601f891682611948565b8355505b6001600288020188555050505b505050505050565b7f4e487b71000000000000000000000000000000000000000000000000000000005f52601260045260245ffd5b5f611a8582610ce8565b9150611a9083610ce8565b925082611aa057611a9f611a4e565b5b828206905092915050565b5f611ab582610ce8565b9150611ac083610ce8565b925082611ad057611acf611a4e565b5b828204905092915050565b7f556e61626c6520746f206d617463682070617468732c20506c656173652074725f8201527f7920616761696e00000000000000000000000000000000000000000000000000602082015250565b5f611b35602783610fd3565b9150611b4082611adb565b604082019050919050565b5f6020820190508181035f830152611b6281611b29565b9050919050565b5f604082019050611b7c5f830185610de7565b611b896020830184610cf1565b939250505056fea2646970667358221220f5b840967372c7e5eec4a604d8120c39acd789dd17c3a9b2815c24da6dd6d38964736f6c63430008160033",
			"opcodes": "PUSH1 0x80 PUSH1 0x40 MSTORE CALLVALUE DUP1 ISZERO PUSH2 0xF JUMPI PUSH0 DUP1 REVERT JUMPDEST POP PUSH2 0x1BC6 DUP1 PUSH2 0x1D PUSH0 CODECOPY PUSH0 RETURN INVALID PUSH1 0x80 PUSH1 0x40 MSTORE CALLVALUE DUP1 ISZERO PUSH2 0xF JUMPI PUSH0 DUP1 REVERT JUMPDEST POP PUSH1 0x4 CALLDATASIZE LT PUSH2 0x9C JUMPI PUSH0 CALLDATALOAD PUSH1 0xE0 SHR DUP1 PUSH4 0xBDB9DB1A GT PUSH2 0x64 JUMPI DUP1 PUSH4 0xBDB9DB1A EQ PUSH2 0x16D JUMPI DUP1 PUSH4 0xBF162D67 EQ PUSH2 0x19D JUMPI DUP1 PUSH4 0xE0391B09 EQ PUSH2 0x1CE JUMPI DUP1 PUSH4 0xF67C8A59 EQ PUSH2 0x1EC JUMPI DUP1 PUSH4 0xFA294149 EQ PUSH2 0x208 JUMPI PUSH2 0x9C JUMP JUMPDEST DUP1 PUSH4 0x114C57E5 EQ PUSH2 0xA0 JUMPI DUP1 PUSH4 0x18854939 EQ PUSH2 0xC0 JUMPI DUP1 PUSH4 0x207A2DCD EQ PUSH2 0xF0 JUMPI DUP1 PUSH4 0x24574A60 EQ PUSH2 0x120 JUMPI DUP1 PUSH4 0xA7B7D3A7 EQ PUSH2 0x151 JUMPI JUMPDEST PUSH0 DUP1 REVERT JUMPDEST PUSH2 0xA8 PUSH2 0x239 JUMP JUMPDEST PUSH1 0x40 MLOAD PUSH2 0xB7 SWAP4 SWAP3 SWAP2 SWAP1 PUSH2 0xDF6 JUMP JUMPDEST PUSH1 0x40 MLOAD DUP1 SWAP2 SUB SWAP1 RETURN JUMPDEST PUSH2 0xDA PUSH1 0x4 DUP1 CALLDATASIZE SUB DUP2 ADD SWAP1 PUSH2 0xD5 SWAP2 SWAP1 PUSH2 0xE6D JUMP JUMPDEST PUSH2 0x356 JUMP JUMPDEST PUSH1 0x40 MLOAD PUSH2 0xE7 SWAP2 SWAP1 PUSH2 0xE98 JUMP JUMPDEST PUSH1 0x40 MLOAD DUP1 SWAP2 SUB SWAP1 RETURN JUMPDEST PUSH2 0x10A PUSH1 0x4 DUP1 CALLDATASIZE SUB DUP2 ADD SWAP1 PUSH2 0x105 SWAP2 SWAP1 PUSH2 0xEB1 JUMP JUMPDEST PUSH2 0x38F JUMP JUMPDEST PUSH1 0x40 MLOAD PUSH2 0x117 SWAP2 SWAP1 PUSH2 0xFB3 JUMP JUMPDEST PUSH1 0x40 MLOAD DUP1 SWAP2 SUB SWAP1 RETURN JUMPDEST PUSH2 0x13A PUSH1 0x4 DUP1 CALLDATASIZE SUB DUP2 ADD SWAP1 PUSH2 0x135 SWAP2 SWAP1 PUSH2 0xEB1 JUMP JUMPDEST PUSH2 0x463 JUMP JUMPDEST PUSH1 0x40 MLOAD PUSH2 0x148 SWAP3 SWAP2 SWAP1 PUSH2 0x101B JUMP JUMPDEST PUSH1 0x40 MLOAD DUP1 SWAP2 SUB SWAP1 RETURN JUMPDEST PUSH2 0x16B PUSH1 0x4 DUP1 CALLDATASIZE SUB DUP2 ADD SWAP1 PUSH2 0x166 SWAP2 SWAP1 PUSH2 0x1317 JUMP JUMPDEST PUSH2 0x514 JUMP JUMPDEST STOP JUMPDEST PUSH2 0x187 PUSH1 0x4 DUP1 CALLDATASIZE SUB DUP2 ADD SWAP1 PUSH2 0x182 SWAP2 SWAP1 PUSH2 0xE6D JUMP JUMPDEST PUSH2 0x80F JUMP JUMPDEST PUSH1 0x40 MLOAD PUSH2 0x194 SWAP2 SWAP1 PUSH2 0x141E JUMP JUMPDEST PUSH1 0x40 MLOAD DUP1 SWAP2 SUB SWAP1 RETURN JUMPDEST PUSH2 0x1B7 PUSH1 0x4 DUP1 CALLDATASIZE SUB DUP2 ADD SWAP1 PUSH2 0x1B2 SWAP2 SWAP1 PUSH2 0xE6D JUMP JUMPDEST PUSH2 0x8CC JUMP JUMPDEST PUSH1 0x40 MLOAD PUSH2 0x1C5 SWAP3 SWAP2 SWAP1 PUSH2 0x1438 JUMP JUMPDEST PUSH1 0x40 MLOAD DUP1 SWAP2 SUB SWAP1 RETURN JUMPDEST PUSH2 0x1D6 PUSH2 0x919 JUMP JUMPDEST PUSH1 0x40 MLOAD PUSH2 0x1E3 SWAP2 SWAP1 PUSH2 0x15E2 JUMP JUMPDEST PUSH1 0x40 MLOAD DUP1 SWAP2 SUB SWAP1 RETURN JUMPDEST PUSH2 0x206 PUSH1 0x4 DUP1 CALLDATASIZE SUB DUP2 ADD SWAP1 PUSH2 0x201 SWAP2 SWAP1 PUSH2 0x16DA JUMP JUMPDEST PUSH2 0xA28 JUMP JUMPDEST STOP JUMPDEST PUSH2 0x222 PUSH1 0x4 DUP1 CALLDATASIZE SUB DUP2 ADD SWAP1 PUSH2 0x21D SWAP2 SWAP1 PUSH2 0x172D JUMP JUMPDEST PUSH2 0xA84 JUMP JUMPDEST PUSH1 0x40 MLOAD PUSH2 0x230 SWAP3 SWAP2 SWAP1 PUSH2 0x1438 JUMP JUMPDEST PUSH1 0x40 MLOAD DUP1 SWAP2 SUB SWAP1 RETURN JUMPDEST PUSH0 PUSH1 0x60 PUSH0 DUP1 PUSH1 0x2 PUSH0 CALLER PUSH20 0xFFFFFFFFFFFFFFFFFFFFFFFFFFFFFFFFFFFFFFFF AND PUSH20 0xFFFFFFFFFFFFFFFFFFFFFFFFFFFFFFFFFFFFFFFF AND DUP2 MSTORE PUSH1 0x20 ADD SWAP1 DUP2 MSTORE PUSH1 0x20 ADD PUSH0 KECCAK256 PUSH1 0x40 MLOAD DUP1 PUSH1 0x60 ADD PUSH1 0x40 MSTORE SWAP1 DUP2 PUSH0 DUP3 ADD SLOAD DUP2 MSTORE PUSH1 0x20 ADD PUSH1 0x1 DUP3 ADD DUP1 SLOAD DUP1 PUSH1 0x20 MUL PUSH1 0x20 ADD PUSH1 0x40 MLOAD SWAP1 DUP2 ADD PUSH1 0x40 MSTORE DUP1 SWAP3 SWAP2 SWAP1 DUP2 DUP2 MSTORE PUSH1 0x20 ADD DUP3 DUP1 SLOAD DUP1 ISZERO PUSH2 0x2DC JUMPI PUSH1 0x20 MUL DUP3 ADD SWAP2 SWAP1 PUSH0 MSTORE PUSH1 0x20 PUSH0 KECCAK256 SWAP1 JUMPDEST DUP2 SLOAD DUP2 MSTORE PUSH1 0x20 ADD SWAP1 PUSH1 0x1 ADD SWAP1 DUP1 DUP4 GT PUSH2 0x2C8 JUMPI JUMPDEST POP POP POP POP POP DUP2 MSTORE PUSH1 0x20 ADD PUSH1 0x2 DUP3 ADD PUSH0 SWAP1 SLOAD SWAP1 PUSH2 0x100 EXP SWAP1 DIV PUSH20 0xFFFFFFFFFFFFFFFFFFFFFFFFFFFFFFFFFFFFFFFF AND PUSH20 0xFFFFFFFFFFFFFFFFFFFFFFFFFFFFFFFFFFFFFFFF AND PUSH20 0xFFFFFFFFFFFFFFFFFFFFFFFFFFFFFFFFFFFFFFFF AND DUP2 MSTORE POP POP SWAP1 POP DUP1 PUSH0 ADD MLOAD DUP2 PUSH1 0x20 ADD MLOAD DUP3 PUSH1 0x40 ADD MLOAD SWAP4 POP SWAP4 POP SWAP4 POP POP SWAP1 SWAP2 SWAP3 JUMP JUMPDEST PUSH0 PUSH1 0x3 PUSH0 DUP4 DUP2 MSTORE PUSH1 0x20 ADD SWAP1 DUP2 MSTORE PUSH1 0x20 ADD PUSH0 KECCAK256 PUSH0 SWAP1 SLOAD SWAP1 PUSH2 0x100 EXP SWAP1 DIV PUSH20 0xFFFFFFFFFFFFFFFFFFFFFFFFFFFFFFFFFFFFFFFF AND SWAP1 POP SWAP2 SWAP1 POP JUMP JUMPDEST PUSH2 0x397 PUSH2 0xC46 JUMP JUMPDEST PUSH1 0x1 PUSH0 DUP5 DUP2 MSTORE PUSH1 0x20 ADD SWAP1 DUP2 MSTORE PUSH1 0x20 ADD PUSH0 KECCAK256 PUSH0 DUP4 DUP2 MSTORE PUSH1 0x20 ADD SWAP1 DUP2 MSTORE PUSH1 0x20 ADD PUSH0 KECCAK256 PUSH1 0x40 MLOAD DUP1 PUSH1 0x40 ADD PUSH1 0x40 MSTORE SWAP1 DUP2 PUSH0 DUP3 ADD SLOAD DUP2 MSTORE PUSH1 0x20 ADD PUSH1 0x1 DUP3 ADD DUP1 SLOAD PUSH2 0x3DB SWAP1 PUSH2 0x1785 JUMP JUMPDEST DUP1 PUSH1 0x1F ADD PUSH1 0x20 DUP1 SWAP2 DIV MUL PUSH1 0x20 ADD PUSH1 0x40 MLOAD SWAP1 DUP2 ADD PUSH1 0x40 MSTORE DUP1 SWAP3 SWAP2 SWAP1 DUP2 DUP2 MSTORE PUSH1 0x20 ADD DUP3 DUP1 SLOAD PUSH2 0x407 SWAP1 PUSH2 0x1785 JUMP JUMPDEST DUP1 ISZERO PUSH2 0x452 JUMPI DUP1 PUSH1 0x1F LT PUSH2 0x429 JUMPI PUSH2 0x100 DUP1 DUP4 SLOAD DIV MUL DUP4 MSTORE SWAP2 PUSH1 0x20 ADD SWAP2 PUSH2 0x452 JUMP JUMPDEST DUP3 ADD SWAP2 SWAP1 PUSH0 MSTORE PUSH1 0x20 PUSH0 KECCAK256 SWAP1 JUMPDEST DUP2 SLOAD DUP2 MSTORE SWAP1 PUSH1 0x1 ADD SWAP1 PUSH1 0x20 ADD DUP1 DUP4 GT PUSH2 0x435 JUMPI DUP3 SWAP1 SUB PUSH1 0x1F AND DUP3 ADD SWAP2 JUMPDEST POP POP POP POP POP DUP2 MSTORE POP POP SWAP1 POP SWAP3 SWAP2 POP POP JUMP JUMPDEST PUSH1 0x1 PUSH1 0x20 MSTORE DUP2 PUSH0 MSTORE PUSH1 0x40 PUSH0 KECCAK256 PUSH1 0x20 MSTORE DUP1 PUSH0 MSTORE PUSH1 0x40 PUSH0 KECCAK256 PUSH0 SWAP2 POP SWAP2 POP POP DUP1 PUSH0 ADD SLOAD SWAP1 DUP1 PUSH1 0x1 ADD DUP1 SLOAD PUSH2 0x493 SWAP1 PUSH2 0x1785 JUMP JUMPDEST DUP1 PUSH1 0x1F ADD PUSH1 0x20 DUP1 SWAP2 DIV MUL PUSH1 0x20 ADD PUSH1 0x40 MLOAD SWAP1 DUP2 ADD PUSH1 0x40 MSTORE DUP1 SWAP3 SWAP2 SWAP1 DUP2 DUP2 MSTORE PUSH1 0x20 ADD DUP3 DUP1 SLOAD PUSH2 0x4BF SWAP1 PUSH2 0x1785 JUMP JUMPDEST DUP1 ISZERO PUSH2 0x50A JUMPI DUP1 PUSH1 0x1F LT PUSH2 0x4E1 JUMPI PUSH2 0x100 DUP1 DUP4 SLOAD DIV MUL DUP4 MSTORE SWAP2 PUSH1 0x20 ADD SWAP2 PUSH2 0x50A JUMP JUMPDEST DUP3 ADD SWAP2 SWAP1 PUSH0 MSTORE PUSH1 0x20 PUSH0 KECCAK256 SWAP1 JUMPDEST DUP2 SLOAD DUP2 MSTORE SWAP1 PUSH1 0x1 ADD SWAP1 PUSH1 0x20 ADD DUP1 DUP4 GT PUSH2 0x4ED JUMPI DUP3 SWAP1 SUB PUSH1 0x1F AND DUP3 ADD SWAP2 JUMPDEST POP POP POP POP POP SWAP1 POP DUP3 JUMP JUMPDEST PUSH0 PUSH1 0x9 PUSH8 0xFFFFFFFFFFFFFFFF DUP2 GT ISZERO PUSH2 0x530 JUMPI PUSH2 0x52F PUSH2 0x104D JUMP JUMPDEST JUMPDEST PUSH1 0x40 MLOAD SWAP1 DUP1 DUP3 MSTORE DUP1 PUSH1 0x20 MUL PUSH1 0x20 ADD DUP3 ADD PUSH1 0x40 MSTORE DUP1 ISZERO PUSH2 0x55E JUMPI DUP2 PUSH1 0x20 ADD PUSH1 0x20 DUP3 MUL DUP1 CALLDATASIZE DUP4 CALLDATACOPY DUP1 DUP3 ADD SWAP2 POP POP SWAP1 POP JUMPDEST POP SWAP1 POP PUSH0 JUMPDEST PUSH1 0x9 DUP2 LT ISZERO PUSH2 0x657 JUMPI PUSH1 0x40 MLOAD DUP1 PUSH1 0x40 ADD PUSH1 0x40 MSTORE DUP1 DUP5 DUP4 DUP2 MLOAD DUP2 LT PUSH2 0x58A JUMPI PUSH2 0x589 PUSH2 0x17B5 JUMP JUMPDEST JUMPDEST PUSH1 0x20 MUL PUSH1 0x20 ADD ADD MLOAD DUP2 MSTORE PUSH1 0x20 ADD DUP6 DUP4 DUP2 MLOAD DUP2 LT PUSH2 0x5AA JUMPI PUSH2 0x5A9 PUSH2 0x17B5 JUMP JUMPDEST JUMPDEST PUSH1 0x20 MUL PUSH1 0x20 ADD ADD MLOAD DUP2 MSTORE POP PUSH1 0x1 PUSH0 DUP8 DUP2 MSTORE PUSH1 0x20 ADD SWAP1 DUP2 MSTORE PUSH1 0x20 ADD PUSH0 KECCAK256 PUSH0 DUP6 DUP5 DUP2 MLOAD DUP2 LT PUSH2 0x5DA JUMPI PUSH2 0x5D9 PUSH2 0x17B5 JUMP JUMPDEST JUMPDEST PUSH1 0x20 MUL PUSH1 0x20 ADD ADD MLOAD DUP2 MSTORE PUSH1 0x20 ADD SWAP1 DUP2 MSTORE PUSH1 0x20 ADD PUSH0 KECCAK256 PUSH0 DUP3 ADD MLOAD DUP2 PUSH0 ADD SSTORE PUSH1 0x20 DUP3 ADD MLOAD DUP2 PUSH1 0x1 ADD SWAP1 DUP2 PUSH2 0x60C SWAP2 SWAP1 PUSH2 0x197F JUMP JUMPDEST POP SWAP1 POP POP DUP3 DUP2 DUP2 MLOAD DUP2 LT PUSH2 0x623 JUMPI PUSH2 0x622 PUSH2 0x17B5 JUMP JUMPDEST JUMPDEST PUSH1 0x20 MUL PUSH1 0x20 ADD ADD MLOAD DUP3 DUP3 DUP2 MLOAD DUP2 LT PUSH2 0x63E JUMPI PUSH2 0x63D PUSH2 0x17B5 JUMP JUMPDEST JUMPDEST PUSH1 0x20 MUL PUSH1 0x20 ADD ADD DUP2 DUP2 MSTORE POP POP DUP1 DUP1 PUSH1 0x1 ADD SWAP2 POP POP PUSH2 0x563 JUMP JUMPDEST POP PUSH0 PUSH1 0x40 MLOAD DUP1 PUSH1 0x60 ADD PUSH1 0x40 MSTORE DUP1 DUP7 DUP2 MSTORE PUSH1 0x20 ADD DUP4 DUP2 MSTORE PUSH1 0x20 ADD CALLER PUSH20 0xFFFFFFFFFFFFFFFFFFFFFFFFFFFFFFFFFFFFFFFF AND DUP2 MSTORE POP SWAP1 POP DUP1 PUSH1 0x2 PUSH0 CALLER PUSH20 0xFFFFFFFFFFFFFFFFFFFFFFFFFFFFFFFFFFFFFFFF AND PUSH20 0xFFFFFFFFFFFFFFFFFFFFFFFFFFFFFFFFFFFFFFFF AND DUP2 MSTORE PUSH1 0x20 ADD SWAP1 DUP2 MSTORE PUSH1 0x20 ADD PUSH0 KECCAK256 PUSH0 DUP3 ADD MLOAD DUP2 PUSH0 ADD SSTORE PUSH1 0x20 DUP3 ADD MLOAD DUP2 PUSH1 0x1 ADD SWAP1 DUP1 MLOAD SWAP1 PUSH1 0x20 ADD SWAP1 PUSH2 0x6EE SWAP3 SWAP2 SWAP1 PUSH2 0xC5F JUMP JUMPDEST POP PUSH1 0x40 DUP3 ADD MLOAD DUP2 PUSH1 0x2 ADD PUSH0 PUSH2 0x100 EXP DUP2 SLOAD DUP2 PUSH20 0xFFFFFFFFFFFFFFFFFFFFFFFFFFFFFFFFFFFFFFFF MUL NOT AND SWAP1 DUP4 PUSH20 0xFFFFFFFFFFFFFFFFFFFFFFFFFFFFFFFFFFFFFFFF AND MUL OR SWAP1 SSTORE POP SWAP1 POP POP PUSH0 DUP2 SWAP1 DUP1 PUSH1 0x1 DUP2 SLOAD ADD DUP1 DUP3 SSTORE DUP1 SWAP2 POP POP PUSH1 0x1 SWAP1 SUB SWAP1 PUSH0 MSTORE PUSH1 0x20 PUSH0 KECCAK256 SWAP1 PUSH1 0x3 MUL ADD PUSH0 SWAP1 SWAP2 SWAP1 SWAP2 SWAP1 SWAP2 POP PUSH0 DUP3 ADD MLOAD DUP2 PUSH0 ADD SSTORE PUSH1 0x20 DUP3 ADD MLOAD DUP2 PUSH1 0x1 ADD SWAP1 DUP1 MLOAD SWAP1 PUSH1 0x20 ADD SWAP1 PUSH2 0x784 SWAP3 SWAP2 SWAP1 PUSH2 0xC5F JUMP JUMPDEST POP PUSH1 0x40 DUP3 ADD MLOAD DUP2 PUSH1 0x2 ADD PUSH0 PUSH2 0x100 EXP DUP2 SLOAD DUP2 PUSH20 0xFFFFFFFFFFFFFFFFFFFFFFFFFFFFFFFFFFFFFFFF MUL NOT AND SWAP1 DUP4 PUSH20 0xFFFFFFFFFFFFFFFFFFFFFFFFFFFFFFFFFFFFFFFF AND MUL OR SWAP1 SSTORE POP POP POP PUSH32 0x4CBF19E7FCB05E5B8D4F6812E6A5187967A8E1BD4CEB8F20072F8A4747F4CF79 DUP6 DUP4 CALLER PUSH1 0x40 MLOAD PUSH2 0x800 SWAP4 SWAP3 SWAP2 SWAP1 PUSH2 0xDF6 JUMP JUMPDEST PUSH1 0x40 MLOAD DUP1 SWAP2 SUB SWAP1 LOG1 POP POP POP POP POP JUMP JUMPDEST PUSH2 0x817 PUSH2 0xCAA JUMP JUMPDEST PUSH2 0x81F PUSH2 0xCAA JUMP JUMPDEST PUSH0 DUP1 PUSH0 SWAP1 POP JUMPDEST PUSH1 0x12 DUP2 LT ISZERO PUSH2 0x8C1 JUMPI PUSH0 SWAP2 POP PUSH0 PUSH1 0xA DUP7 PUSH2 0x83F SWAP2 SWAP1 PUSH2 0x1A7B JUMP JUMPDEST SWAP1 POP PUSH0 JUMPDEST PUSH1 0x12 DUP2 LT ISZERO PUSH2 0x880 JUMPI DUP5 DUP2 PUSH1 0x12 DUP2 LT PUSH2 0x85F JUMPI PUSH2 0x85E PUSH2 0x17B5 JUMP JUMPDEST JUMPDEST PUSH1 0x20 MUL ADD MLOAD DUP3 SUB PUSH2 0x873 JUMPI PUSH1 0x1 SWAP4 POP PUSH2 0x880 JUMP JUMPDEST DUP1 DUP1 PUSH1 0x1 ADD SWAP2 POP POP PUSH2 0x843 JUMP JUMPDEST POP DUP3 PUSH2 0x8A4 JUMPI DUP1 DUP5 DUP4 PUSH1 0x12 DUP2 LT PUSH2 0x89A JUMPI PUSH2 0x899 PUSH2 0x17B5 JUMP JUMPDEST JUMPDEST PUSH1 0x20 MUL ADD DUP2 DUP2 MSTORE POP POP JUMPDEST PUSH1 0xA DUP7 PUSH2 0x8B1 SWAP2 SWAP1 PUSH2 0x1AAB JUMP JUMPDEST SWAP6 POP POP DUP1 DUP1 PUSH1 0x1 ADD SWAP2 POP POP PUSH2 0x825 JUMP JUMPDEST POP DUP2 SWAP3 POP POP POP SWAP2 SWAP1 POP JUMP JUMPDEST PUSH0 DUP2 DUP2 SLOAD DUP2 LT PUSH2 0x8DA JUMPI PUSH0 DUP1 REVERT JUMPDEST SWAP1 PUSH0 MSTORE PUSH1 0x20 PUSH0 KECCAK256 SWAP1 PUSH1 0x3 MUL ADD PUSH0 SWAP2 POP SWAP1 POP DUP1 PUSH0 ADD SLOAD SWAP1 DUP1 PUSH1 0x2 ADD PUSH0 SWAP1 SLOAD SWAP1 PUSH2 0x100 EXP SWAP1 DIV PUSH20 0xFFFFFFFFFFFFFFFFFFFFFFFFFFFFFFFFFFFFFFFF AND SWAP1 POP DUP3 JUMP JUMPDEST PUSH1 0x60 PUSH0 DUP1 SLOAD DUP1 PUSH1 0x20 MUL PUSH1 0x20 ADD PUSH1 0x40 MLOAD SWAP1 DUP2 ADD PUSH1 0x40 MSTORE DUP1 SWAP3 SWAP2 SWAP1 DUP2 DUP2 MSTORE PUSH1 0x20 ADD PUSH0 SWAP1 JUMPDEST DUP3 DUP3 LT ISZERO PUSH2 0xA1F JUMPI DUP4 DUP3 SWAP1 PUSH0 MSTORE PUSH1 0x20 PUSH0 KECCAK256 SWAP1 PUSH1 0x3 MUL ADD PUSH1 0x40 MLOAD DUP1 PUSH1 0x60 ADD PUSH1 0x40 MSTORE SWAP1 DUP2 PUSH0 DUP3 ADD SLOAD DUP2 MSTORE PUSH1 0x20 ADD PUSH1 0x1 DUP3 ADD DUP1 SLOAD DUP1 PUSH1 0x20 MUL PUSH1 0x20 ADD PUSH1 0x40 MLOAD SWAP1 DUP2 ADD PUSH1 0x40 MSTORE DUP1 SWAP3 SWAP2 SWAP1 DUP2 DUP2 MSTORE PUSH1 0x20 ADD DUP3 DUP1 SLOAD DUP1 ISZERO PUSH2 0x9B2 JUMPI PUSH1 0x20 MUL DUP3 ADD SWAP2 SWAP1 PUSH0 MSTORE PUSH1 0x20 PUSH0 KECCAK256 SWAP1 JUMPDEST DUP2 SLOAD DUP2 MSTORE PUSH1 0x20 ADD SWAP1 PUSH1 0x1 ADD SWAP1 DUP1 DUP4 GT PUSH2 0x99E JUMPI JUMPDEST POP POP POP POP POP DUP2 MSTORE PUSH1 0x20 ADD PUSH1 0x2 DUP3 ADD PUSH0 SWAP1 SLOAD SWAP1 PUSH2 0x100 EXP SWAP1 DIV PUSH20 0xFFFFFFFFFFFFFFFFFFFFFFFFFFFFFFFFFFFFFFFF AND PUSH20 0xFFFFFFFFFFFFFFFFFFFFFFFFFFFFFFFFFFFFFFFF AND PUSH20 0xFFFFFFFFFFFFFFFFFFFFFFFFFFFFFFFFFFFFFFFF AND DUP2 MSTORE POP POP DUP2 MSTORE PUSH1 0x20 ADD SWAP1 PUSH1 0x1 ADD SWAP1 PUSH2 0x93B JUMP JUMPDEST POP POP POP POP SWAP1 POP SWAP1 JUMP JUMPDEST PUSH0 PUSH2 0xA33 DUP5 DUP4 PUSH2 0xAC3 JUMP JUMPDEST SWAP1 POP DUP1 PUSH2 0xA75 JUMPI PUSH1 0x40 MLOAD PUSH32 0x8C379A000000000000000000000000000000000000000000000000000000000 DUP2 MSTORE PUSH1 0x4 ADD PUSH2 0xA6C SWAP1 PUSH2 0x1B4B JUMP JUMPDEST PUSH1 0x40 MLOAD DUP1 SWAP2 SUB SWAP1 REVERT JUMPDEST PUSH2 0xA7E DUP4 PUSH2 0xBBB JUMP JUMPDEST POP POP POP POP JUMP JUMPDEST PUSH1 0x2 PUSH1 0x20 MSTORE DUP1 PUSH0 MSTORE PUSH1 0x40 PUSH0 KECCAK256 PUSH0 SWAP2 POP SWAP1 POP DUP1 PUSH0 ADD SLOAD SWAP1 DUP1 PUSH1 0x2 ADD PUSH0 SWAP1 SLOAD SWAP1 PUSH2 0x100 EXP SWAP1 DIV PUSH20 0xFFFFFFFFFFFFFFFFFFFFFFFFFFFFFFFFFFFFFFFF AND SWAP1 POP DUP3 JUMP JUMPDEST PUSH0 DUP1 PUSH1 0x2 PUSH0 DUP5 PUSH20 0xFFFFFFFFFFFFFFFFFFFFFFFFFFFFFFFFFFFFFFFF AND PUSH20 0xFFFFFFFFFFFFFFFFFFFFFFFFFFFFFFFFFFFFFFFF AND DUP2 MSTORE PUSH1 0x20 ADD SWAP1 DUP2 MSTORE PUSH1 0x20 ADD PUSH0 KECCAK256 PUSH1 0x1 ADD DUP1 SLOAD DUP1 PUSH1 0x20 MUL PUSH1 0x20 ADD PUSH1 0x40 MLOAD SWAP1 DUP2 ADD PUSH1 0x40 MSTORE DUP1 SWAP3 SWAP2 SWAP1 DUP2 DUP2 MSTORE PUSH1 0x20 ADD DUP3 DUP1 SLOAD DUP1 ISZERO PUSH2 0xB4D JUMPI PUSH1 0x20 MUL DUP3 ADD SWAP2 SWAP1 PUSH0 MSTORE PUSH1 0x20 PUSH0 KECCAK256 SWAP1 JUMPDEST DUP2 SLOAD DUP2 MSTORE PUSH1 0x20 ADD SWAP1 PUSH1 0x1 ADD SWAP1 DUP1 DUP4 GT PUSH2 0xB39 JUMPI JUMPDEST POP POP POP POP POP SWAP1 POP PUSH0 JUMPDEST PUSH1 0x9 DUP2 LT ISZERO PUSH2 0xBAE JUMPI DUP2 DUP2 DUP2 MLOAD DUP2 LT PUSH2 0xB72 JUMPI PUSH2 0xB71 PUSH2 0x17B5 JUMP JUMPDEST JUMPDEST PUSH1 0x20 MUL PUSH1 0x20 ADD ADD MLOAD DUP6 DUP3 PUSH1 0x9 DUP2 LT PUSH2 0xB8D JUMPI PUSH2 0xB8C PUSH2 0x17B5 JUMP JUMPDEST JUMPDEST PUSH1 0x20 MUL ADD MLOAD EQ PUSH2 0xBA1 JUMPI PUSH0 SWAP3 POP POP POP PUSH2 0xBB5 JUMP JUMPDEST DUP1 DUP1 PUSH1 0x1 ADD SWAP2 POP POP PUSH2 0xB56 JUMP JUMPDEST POP PUSH1 0x1 SWAP2 POP POP JUMPDEST SWAP3 SWAP2 POP POP JUMP JUMPDEST CALLER PUSH1 0x3 PUSH0 DUP4 DUP2 MSTORE PUSH1 0x20 ADD SWAP1 DUP2 MSTORE PUSH1 0x20 ADD PUSH0 KECCAK256 PUSH0 PUSH2 0x100 EXP DUP2 SLOAD DUP2 PUSH20 0xFFFFFFFFFFFFFFFFFFFFFFFFFFFFFFFFFFFFFFFF MUL NOT AND SWAP1 DUP4 PUSH20 0xFFFFFFFFFFFFFFFFFFFFFFFFFFFFFFFFFFFFFFFF AND MUL OR SWAP1 SSTORE POP PUSH32 0xA3204BC33A281ED667ABAD174342FA0C82AE0B9FDAD5B5F14319335ACDA3E6E CALLER DUP3 PUSH1 0x40 MLOAD PUSH2 0xC3B SWAP3 SWAP2 SWAP1 PUSH2 0x1B69 JUMP JUMPDEST PUSH1 0x40 MLOAD DUP1 SWAP2 SUB SWAP1 LOG1 POP JUMP JUMPDEST PUSH1 0x40 MLOAD DUP1 PUSH1 0x40 ADD PUSH1 0x40 MSTORE DUP1 PUSH0 DUP2 MSTORE PUSH1 0x20 ADD PUSH1 0x60 DUP2 MSTORE POP SWAP1 JUMP JUMPDEST DUP3 DUP1 SLOAD DUP3 DUP3 SSTORE SWAP1 PUSH0 MSTORE PUSH1 0x20 PUSH0 KECCAK256 SWAP1 DUP2 ADD SWAP3 DUP3 ISZERO PUSH2 0xC99 JUMPI SWAP2 PUSH1 0x20 MUL DUP3 ADD JUMPDEST DUP3 DUP2 GT ISZERO PUSH2 0xC98 JUMPI DUP3 MLOAD DUP3 SSTORE SWAP2 PUSH1 0x20 ADD SWAP2 SWAP1 PUSH1 0x1 ADD SWAP1 PUSH2 0xC7D JUMP JUMPDEST JUMPDEST POP SWAP1 POP PUSH2 0xCA6 SWAP2 SWAP1 PUSH2 0xCCD JUMP JUMPDEST POP SWAP1 JUMP JUMPDEST PUSH1 0x40 MLOAD DUP1 PUSH2 0x240 ADD PUSH1 0x40 MSTORE DUP1 PUSH1 0x12 SWAP1 PUSH1 0x20 DUP3 MUL DUP1 CALLDATASIZE DUP4 CALLDATACOPY DUP1 DUP3 ADD SWAP2 POP POP SWAP1 POP POP SWAP1 JUMP JUMPDEST JUMPDEST DUP1 DUP3 GT ISZERO PUSH2 0xCE4 JUMPI PUSH0 DUP2 PUSH0 SWAP1 SSTORE POP PUSH1 0x1 ADD PUSH2 0xCCE JUMP JUMPDEST POP SWAP1 JUMP JUMPDEST PUSH0 DUP2 SWAP1 POP SWAP2 SWAP1 POP JUMP JUMPDEST PUSH2 0xCFA DUP2 PUSH2 0xCE8 JUMP JUMPDEST DUP3 MSTORE POP POP JUMP JUMPDEST PUSH0 DUP2 MLOAD SWAP1 POP SWAP2 SWAP1 POP JUMP JUMPDEST PUSH0 DUP3 DUP3 MSTORE PUSH1 0x20 DUP3 ADD SWAP1 POP SWAP3 SWAP2 POP POP JUMP JUMPDEST PUSH0 DUP2 SWAP1 POP PUSH1 0x20 DUP3 ADD SWAP1 POP SWAP2 SWAP1 POP JUMP JUMPDEST PUSH2 0xD32 DUP2 PUSH2 0xCE8 JUMP JUMPDEST DUP3 MSTORE POP POP JUMP JUMPDEST PUSH0 PUSH2 0xD43 DUP4 DUP4 PUSH2 0xD29 JUMP JUMPDEST PUSH1 0x20 DUP4 ADD SWAP1 POP SWAP3 SWAP2 POP POP JUMP JUMPDEST PUSH0 PUSH1 0x20 DUP3 ADD SWAP1 POP SWAP2 SWAP1 POP JUMP JUMPDEST PUSH0 PUSH2 0xD65 DUP3 PUSH2 0xD00 JUMP JUMPDEST PUSH2 0xD6F DUP2 DUP6 PUSH2 0xD0A JUMP JUMPDEST SWAP4 POP PUSH2 0xD7A DUP4 PUSH2 0xD1A JUMP JUMPDEST DUP1 PUSH0 JUMPDEST DUP4 DUP2 LT ISZERO PUSH2 0xDAA JUMPI DUP2 MLOAD PUSH2 0xD91 DUP9 DUP3 PUSH2 0xD38 JUMP JUMPDEST SWAP8 POP PUSH2 0xD9C DUP4 PUSH2 0xD4F JUMP JUMPDEST SWAP3 POP POP PUSH1 0x1 DUP2 ADD SWAP1 POP PUSH2 0xD7D JUMP JUMPDEST POP DUP6 SWAP4 POP POP POP POP SWAP3 SWAP2 POP POP JUMP JUMPDEST PUSH0 PUSH20 0xFFFFFFFFFFFFFFFFFFFFFFFFFFFFFFFFFFFFFFFF DUP3 AND SWAP1 POP SWAP2 SWAP1 POP JUMP JUMPDEST PUSH0 PUSH2 0xDE0 DUP3 PUSH2 0xDB7 JUMP JUMPDEST SWAP1 POP SWAP2 SWAP1 POP JUMP JUMPDEST PUSH2 0xDF0 DUP2 PUSH2 0xDD6 JUMP JUMPDEST DUP3 MSTORE POP POP JUMP JUMPDEST PUSH0 PUSH1 0x60 DUP3 ADD SWAP1 POP PUSH2 0xE09 PUSH0 DUP4 ADD DUP7 PUSH2 0xCF1 JUMP JUMPDEST DUP2 DUP2 SUB PUSH1 0x20 DUP4 ADD MSTORE PUSH2 0xE1B DUP2 DUP6 PUSH2 0xD5B JUMP JUMPDEST SWAP1 POP PUSH2 0xE2A PUSH1 0x40 DUP4 ADD DUP5 PUSH2 0xDE7 JUMP JUMPDEST SWAP5 SWAP4 POP POP POP POP JUMP JUMPDEST PUSH0 PUSH1 0x40 MLOAD SWAP1 POP SWAP1 JUMP JUMPDEST PUSH0 DUP1 REVERT JUMPDEST PUSH0 DUP1 REVERT JUMPDEST PUSH2 0xE4C DUP2 PUSH2 0xCE8 JUMP JUMPDEST DUP2 EQ PUSH2 0xE56 JUMPI PUSH0 DUP1 REVERT JUMPDEST POP JUMP JUMPDEST PUSH0 DUP2 CALLDATALOAD SWAP1 POP PUSH2 0xE67 DUP2 PUSH2 0xE43 JUMP JUMPDEST SWAP3 SWAP2 POP POP JUMP JUMPDEST PUSH0 PUSH1 0x20 DUP3 DUP5 SUB SLT ISZERO PUSH2 0xE82 JUMPI PUSH2 0xE81 PUSH2 0xE3B JUMP JUMPDEST JUMPDEST PUSH0 PUSH2 0xE8F DUP5 DUP3 DUP6 ADD PUSH2 0xE59 JUMP JUMPDEST SWAP2 POP POP SWAP3 SWAP2 POP POP JUMP JUMPDEST PUSH0 PUSH1 0x20 DUP3 ADD SWAP1 POP PUSH2 0xEAB PUSH0 DUP4 ADD DUP5 PUSH2 0xDE7 JUMP JUMPDEST SWAP3 SWAP2 POP POP JUMP JUMPDEST PUSH0 DUP1 PUSH1 0x40 DUP4 DUP6 SUB SLT ISZERO PUSH2 0xEC7 JUMPI PUSH2 0xEC6 PUSH2 0xE3B JUMP JUMPDEST JUMPDEST PUSH0 PUSH2 0xED4 DUP6 DUP3 DUP7 ADD PUSH2 0xE59 JUMP JUMPDEST SWAP3 POP POP PUSH1 0x20 PUSH2 0xEE5 DUP6 DUP3 DUP7 ADD PUSH2 0xE59 JUMP JUMPDEST SWAP2 POP POP SWAP3 POP SWAP3 SWAP1 POP JUMP JUMPDEST PUSH0 DUP2 MLOAD SWAP1 POP SWAP2 SWAP1 POP JUMP JUMPDEST PUSH0 DUP3 DUP3 MSTORE PUSH1 0x20 DUP3 ADD SWAP1 POP SWAP3 SWAP2 POP POP JUMP JUMPDEST PUSH0 JUMPDEST DUP4 DUP2 LT ISZERO PUSH2 0xF26 JUMPI DUP1 DUP3 ADD MLOAD DUP2 DUP5 ADD MSTORE PUSH1 0x20 DUP2 ADD SWAP1 POP PUSH2 0xF0B JUMP JUMPDEST PUSH0 DUP5 DUP5 ADD MSTORE POP POP POP POP JUMP JUMPDEST PUSH0 PUSH1 0x1F NOT PUSH1 0x1F DUP4 ADD AND SWAP1 POP SWAP2 SWAP1 POP JUMP JUMPDEST PUSH0 PUSH2 0xF4B DUP3 PUSH2 0xEEF JUMP JUMPDEST PUSH2 0xF55 DUP2 DUP6 PUSH2 0xEF9 JUMP JUMPDEST SWAP4 POP PUSH2 0xF65 DUP2 DUP6 PUSH1 0x20 DUP7 ADD PUSH2 0xF09 JUMP JUMPDEST PUSH2 0xF6E DUP2 PUSH2 0xF31 JUMP JUMPDEST DUP5 ADD SWAP2 POP POP SWAP3 SWAP2 POP POP JUMP JUMPDEST PUSH0 PUSH1 0x40 DUP4 ADD PUSH0 DUP4 ADD MLOAD PUSH2 0xF8E PUSH0 DUP7 ADD DUP3 PUSH2 0xD29 JUMP JUMPDEST POP PUSH1 0x20 DUP4 ADD MLOAD DUP5 DUP3 SUB PUSH1 0x20 DUP7 ADD MSTORE PUSH2 0xFA6 DUP3 DUP3 PUSH2 0xF41 JUMP JUMPDEST SWAP2 POP POP DUP1 SWAP2 POP POP SWAP3 SWAP2 POP POP JUMP JUMPDEST PUSH0 PUSH1 0x20 DUP3 ADD SWAP1 POP DUP2 DUP2 SUB PUSH0 DUP4 ADD MSTORE PUSH2 0xFCB DUP2 DUP5 PUSH2 0xF79 JUMP JUMPDEST SWAP1 POP SWAP3 SWAP2 POP POP JUMP JUMPDEST PUSH0 DUP3 DUP3 MSTORE PUSH1 0x20 DUP3 ADD SWAP1 POP SWAP3 SWAP2 POP POP JUMP JUMPDEST PUSH0 PUSH2 0xFED DUP3 PUSH2 0xEEF JUMP JUMPDEST PUSH2 0xFF7 DUP2 DUP6 PUSH2 0xFD3 JUMP JUMPDEST SWAP4 POP PUSH2 0x1007 DUP2 DUP6 PUSH1 0x20 DUP7 ADD PUSH2 0xF09 JUMP JUMPDEST PUSH2 0x1010 DUP2 PUSH2 0xF31 JUMP JUMPDEST DUP5 ADD SWAP2 POP POP SWAP3 SWAP2 POP POP JUMP JUMPDEST PUSH0 PUSH1 0x40 DUP3 ADD SWAP1 POP PUSH2 0x102E PUSH0 DUP4 ADD DUP6 PUSH2 0xCF1 JUMP JUMPDEST DUP2 DUP2 SUB PUSH1 0x20 DUP4 ADD MSTORE PUSH2 0x1040 DUP2 DUP5 PUSH2 0xFE3 JUMP JUMPDEST SWAP1 POP SWAP4 SWAP3 POP POP POP JUMP JUMPDEST PUSH0 DUP1 REVERT JUMPDEST PUSH32 0x4E487B7100000000000000000000000000000000000000000000000000000000 PUSH0 MSTORE PUSH1 0x41 PUSH1 0x4 MSTORE PUSH1 0x24 PUSH0 REVERT JUMPDEST PUSH2 0x1083 DUP3 PUSH2 0xF31 JUMP JUMPDEST DUP2 ADD DUP2 DUP2 LT PUSH8 0xFFFFFFFFFFFFFFFF DUP3 GT OR ISZERO PUSH2 0x10A2 JUMPI PUSH2 0x10A1 PUSH2 0x104D JUMP JUMPDEST JUMPDEST DUP1 PUSH1 0x40 MSTORE POP POP POP JUMP JUMPDEST PUSH0 PUSH2 0x10B4 PUSH2 0xE32 JUMP JUMPDEST SWAP1 POP PUSH2 0x10C0 DUP3 DUP3 PUSH2 0x107A JUMP JUMPDEST SWAP2 SWAP1 POP JUMP JUMPDEST PUSH0 PUSH8 0xFFFFFFFFFFFFFFFF DUP3 GT ISZERO PUSH2 0x10DF JUMPI PUSH2 0x10DE PUSH2 0x104D JUMP JUMPDEST JUMPDEST PUSH1 0x20 DUP3 MUL SWAP1 POP PUSH1 0x20 DUP2 ADD SWAP1 POP SWAP2 SWAP1 POP JUMP JUMPDEST PUSH0 DUP1 REVERT JUMPDEST PUSH0 DUP1 REVERT JUMPDEST PUSH0 PUSH8 0xFFFFFFFFFFFFFFFF DUP3 GT ISZERO PUSH2 0x1112 JUMPI PUSH2 0x1111 PUSH2 0x104D JUMP JUMPDEST JUMPDEST PUSH2 0x111B DUP3 PUSH2 0xF31 JUMP JUMPDEST SWAP1 POP PUSH1 0x20 DUP2 ADD SWAP1 POP SWAP2 SWAP1 POP JUMP JUMPDEST DUP3 DUP2 DUP4 CALLDATACOPY PUSH0 DUP4 DUP4 ADD MSTORE POP POP POP JUMP JUMPDEST PUSH0 PUSH2 0x1148 PUSH2 0x1143 DUP5 PUSH2 0x10F8 JUMP JUMPDEST PUSH2 0x10AB JUMP JUMPDEST SWAP1 POP DUP3 DUP2 MSTORE PUSH1 0x20 DUP2 ADD DUP5 DUP5 DUP5 ADD GT ISZERO PUSH2 0x1164 JUMPI PUSH2 0x1163 PUSH2 0x10F4 JUMP JUMPDEST JUMPDEST PUSH2 0x116F DUP5 DUP3 DUP6 PUSH2 0x1128 JUMP JUMPDEST POP SWAP4 SWAP3 POP POP POP JUMP JUMPDEST PUSH0 DUP3 PUSH1 0x1F DUP4 ADD SLT PUSH2 0x118B JUMPI PUSH2 0x118A PUSH2 0x1049 JUMP JUMPDEST JUMPDEST DUP2 CALLDATALOAD PUSH2 0x119B DUP5 DUP3 PUSH1 0x20 DUP7 ADD PUSH2 0x1136 JUMP JUMPDEST SWAP2 POP POP SWAP3 SWAP2 POP POP JUMP JUMPDEST PUSH0 PUSH2 0x11B6 PUSH2 0x11B1 DUP5 PUSH2 0x10C5 JUMP JUMPDEST PUSH2 0x10AB JUMP JUMPDEST SWAP1 POP DUP1 DUP4 DUP3 MSTORE PUSH1 0x20 DUP3 ADD SWAP1 POP PUSH1 0x20 DUP5 MUL DUP4 ADD DUP6 DUP2 GT ISZERO PUSH2 0x11D9 JUMPI PUSH2 0x11D8 PUSH2 0x10F0 JUMP JUMPDEST JUMPDEST DUP4 JUMPDEST DUP2 DUP2 LT ISZERO PUSH2 0x1220 JUMPI DUP1 CALLDATALOAD PUSH8 0xFFFFFFFFFFFFFFFF DUP2 GT ISZERO PUSH2 0x11FE JUMPI PUSH2 0x11FD PUSH2 0x1049 JUMP JUMPDEST JUMPDEST DUP1 DUP7 ADD PUSH2 0x120B DUP10 DUP3 PUSH2 0x1177 JUMP JUMPDEST DUP6 MSTORE PUSH1 0x20 DUP6 ADD SWAP5 POP POP POP PUSH1 0x20 DUP2 ADD SWAP1 POP PUSH2 0x11DB JUMP JUMPDEST POP POP POP SWAP4 SWAP3 POP POP POP JUMP JUMPDEST PUSH0 DUP3 PUSH1 0x1F DUP4 ADD SLT PUSH2 0x123E JUMPI PUSH2 0x123D PUSH2 0x1049 JUMP JUMPDEST JUMPDEST DUP2 CALLDATALOAD PUSH2 0x124E DUP5 DUP3 PUSH1 0x20 DUP7 ADD PUSH2 0x11A4 JUMP JUMPDEST SWAP2 POP POP SWAP3 SWAP2 POP POP JUMP JUMPDEST PUSH0 PUSH8 0xFFFFFFFFFFFFFFFF DUP3 GT ISZERO PUSH2 0x1271 JUMPI PUSH2 0x1270 PUSH2 0x104D JUMP JUMPDEST JUMPDEST PUSH1 0x20 DUP3 MUL SWAP1 POP PUSH1 0x20 DUP2 ADD SWAP1 POP SWAP2 SWAP1 POP JUMP JUMPDEST PUSH0 PUSH2 0x1294 PUSH2 0x128F DUP5 PUSH2 0x1257 JUMP JUMPDEST PUSH2 0x10AB JUMP JUMPDEST SWAP1 POP DUP1 DUP4 DUP3 MSTORE PUSH1 0x20 DUP3 ADD SWAP1 POP PUSH1 0x20 DUP5 MUL DUP4 ADD DUP6 DUP2 GT ISZERO PUSH2 0x12B7 JUMPI PUSH2 0x12B6 PUSH2 0x10F0 JUMP JUMPDEST JUMPDEST DUP4 JUMPDEST DUP2 DUP2 LT ISZERO PUSH2 0x12E0 JUMPI DUP1 PUSH2 0x12CC DUP9 DUP3 PUSH2 0xE59 JUMP JUMPDEST DUP5 MSTORE PUSH1 0x20 DUP5 ADD SWAP4 POP POP PUSH1 0x20 DUP2 ADD SWAP1 POP PUSH2 0x12B9 JUMP JUMPDEST POP POP POP SWAP4 SWAP3 POP POP POP JUMP JUMPDEST PUSH0 DUP3 PUSH1 0x1F DUP4 ADD SLT PUSH2 0x12FE JUMPI PUSH2 0x12FD PUSH2 0x1049 JUMP JUMPDEST JUMPDEST DUP2 CALLDATALOAD PUSH2 0x130E DUP5 DUP3 PUSH1 0x20 DUP7 ADD PUSH2 0x1282 JUMP JUMPDEST SWAP2 POP POP SWAP3 SWAP2 POP POP JUMP JUMPDEST PUSH0 DUP1 PUSH0 PUSH1 0x60 DUP5 DUP7 SUB SLT ISZERO PUSH2 0x132E JUMPI PUSH2 0x132D PUSH2 0xE3B JUMP JUMPDEST JUMPDEST PUSH0 PUSH2 0x133B DUP7 DUP3 DUP8 ADD PUSH2 0xE59 JUMP JUMPDEST SWAP4 POP POP PUSH1 0x20 DUP5 ADD CALLDATALOAD PUSH8 0xFFFFFFFFFFFFFFFF DUP2 GT ISZERO PUSH2 0x135C JUMPI PUSH2 0x135B PUSH2 0xE3F JUMP JUMPDEST JUMPDEST PUSH2 0x1368 DUP7 DUP3 DUP8 ADD PUSH2 0x122A JUMP JUMPDEST SWAP3 POP POP PUSH1 0x40 DUP5 ADD CALLDATALOAD PUSH8 0xFFFFFFFFFFFFFFFF DUP2 GT ISZERO PUSH2 0x1389 JUMPI PUSH2 0x1388 PUSH2 0xE3F JUMP JUMPDEST JUMPDEST PUSH2 0x1395 DUP7 DUP3 DUP8 ADD PUSH2 0x12EA JUMP JUMPDEST SWAP2 POP POP SWAP3 POP SWAP3 POP SWAP3 JUMP JUMPDEST PUSH0 PUSH1 0x12 SWAP1 POP SWAP2 SWAP1 POP JUMP JUMPDEST PUSH0 DUP2 SWAP1 POP SWAP3 SWAP2 POP POP JUMP JUMPDEST PUSH0 DUP2 SWAP1 POP SWAP2 SWAP1 POP JUMP JUMPDEST PUSH0 PUSH1 0x20 DUP3 ADD SWAP1 POP SWAP2 SWAP1 POP JUMP JUMPDEST PUSH2 0x13D1 DUP2 PUSH2 0x139F JUMP JUMPDEST PUSH2 0x13DB DUP2 DUP5 PUSH2 0x13A9 JUMP JUMPDEST SWAP3 POP PUSH2 0x13E6 DUP3 PUSH2 0x13B3 JUMP JUMPDEST DUP1 PUSH0 JUMPDEST DUP4 DUP2 LT ISZERO PUSH2 0x1416 JUMPI DUP2 MLOAD PUSH2 0x13FD DUP8 DUP3 PUSH2 0xD38 JUMP JUMPDEST SWAP7 POP PUSH2 0x1408 DUP4 PUSH2 0x13BC JUMP JUMPDEST SWAP3 POP POP PUSH1 0x1 DUP2 ADD SWAP1 POP PUSH2 0x13E9 JUMP JUMPDEST POP POP POP POP POP POP JUMP JUMPDEST PUSH0 PUSH2 0x240 DUP3 ADD SWAP1 POP PUSH2 0x1432 PUSH0 DUP4 ADD DUP5 PUSH2 0x13C8 JUMP JUMPDEST SWAP3 SWAP2 POP POP JUMP JUMPDEST PUSH0 PUSH1 0x40 DUP3 ADD SWAP1 POP PUSH2 0x144B PUSH0 DUP4 ADD DUP6 PUSH2 0xCF1 JUMP JUMPDEST PUSH2 0x1458 PUSH1 0x20 DUP4 ADD DUP5 PUSH2 0xDE7 JUMP JUMPDEST SWAP4 SWAP3 POP POP POP JUMP JUMPDEST PUSH0 DUP2 MLOAD SWAP1 POP SWAP2 SWAP1 POP JUMP JUMPDEST PUSH0 DUP3 DUP3 MSTORE PUSH1 0x20 DUP3 ADD SWAP1 POP SWAP3 SWAP2 POP POP JUMP JUMPDEST PUSH0 DUP2 SWAP1 POP PUSH1 0x20 DUP3 ADD SWAP1 POP SWAP2 SWAP1 POP JUMP JUMPDEST PUSH0 DUP3 DUP3 MSTORE PUSH1 0x20 DUP3 ADD SWAP1 POP SWAP3 SWAP2 POP POP JUMP JUMPDEST PUSH0 PUSH2 0x14A2 DUP3 PUSH2 0xD00 JUMP JUMPDEST PUSH2 0x14AC DUP2 DUP6 PUSH2 0x1488 JUMP JUMPDEST SWAP4 POP PUSH2 0x14B7 DUP4 PUSH2 0xD1A JUMP JUMPDEST DUP1 PUSH0 JUMPDEST DUP4 DUP2 LT ISZERO PUSH2 0x14E7 JUMPI DUP2 MLOAD PUSH2 0x14CE DUP9 DUP3 PUSH2 0xD38 JUMP JUMPDEST SWAP8 POP PUSH2 0x14D9 DUP4 PUSH2 0xD4F JUMP JUMPDEST SWAP3 POP POP PUSH1 0x1 DUP2 ADD SWAP1 POP PUSH2 0x14BA JUMP JUMPDEST POP DUP6 SWAP4 POP POP POP POP SWAP3 SWAP2 POP POP JUMP JUMPDEST PUSH2 0x14FD DUP2 PUSH2 0xDD6 JUMP JUMPDEST DUP3 MSTORE POP POP JUMP JUMPDEST PUSH0 PUSH1 0x60 DUP4 ADD PUSH0 DUP4 ADD MLOAD PUSH2 0x1518 PUSH0 DUP7 ADD DUP3 PUSH2 0xD29 JUMP JUMPDEST POP PUSH1 0x20 DUP4 ADD MLOAD DUP5 DUP3 SUB PUSH1 0x20 DUP7 ADD MSTORE PUSH2 0x1530 DUP3 DUP3 PUSH2 0x1498 JUMP JUMPDEST SWAP2 POP POP PUSH1 0x40 DUP4 ADD MLOAD PUSH2 0x1545 PUSH1 0x40 DUP7 ADD DUP3 PUSH2 0x14F4 JUMP JUMPDEST POP DUP1 SWAP2 POP POP SWAP3 SWAP2 POP POP JUMP JUMPDEST PUSH0 PUSH2 0x155B DUP4 DUP4 PUSH2 0x1503 JUMP JUMPDEST SWAP1 POP SWAP3 SWAP2 POP POP JUMP JUMPDEST PUSH0 PUSH1 0x20 DUP3 ADD SWAP1 POP SWAP2 SWAP1 POP JUMP JUMPDEST PUSH0 PUSH2 0x1579 DUP3 PUSH2 0x145F JUMP JUMPDEST PUSH2 0x1583 DUP2 DUP6 PUSH2 0x1469 JUMP JUMPDEST SWAP4 POP DUP4 PUSH1 0x20 DUP3 MUL DUP6 ADD PUSH2 0x1595 DUP6 PUSH2 0x1479 JUMP JUMPDEST DUP1 PUSH0 JUMPDEST DUP6 DUP2 LT ISZERO PUSH2 0x15D0 JUMPI DUP5 DUP5 SUB DUP10 MSTORE DUP2 MLOAD PUSH2 0x15B1 DUP6 DUP3 PUSH2 0x1550 JUMP JUMPDEST SWAP5 POP PUSH2 0x15BC DUP4 PUSH2 0x1563 JUMP JUMPDEST SWAP3 POP PUSH1 0x20 DUP11 ADD SWAP10 POP POP PUSH1 0x1 DUP2 ADD SWAP1 POP PUSH2 0x1598 JUMP JUMPDEST POP DUP3 SWAP8 POP DUP8 SWAP6 POP POP POP POP POP POP SWAP3 SWAP2 POP POP JUMP JUMPDEST PUSH0 PUSH1 0x20 DUP3 ADD SWAP1 POP DUP2 DUP2 SUB PUSH0 DUP4 ADD MSTORE PUSH2 0x15FA DUP2 DUP5 PUSH2 0x156F JUMP JUMPDEST SWAP1 POP SWAP3 SWAP2 POP POP JUMP JUMPDEST PUSH0 PUSH8 0xFFFFFFFFFFFFFFFF DUP3 GT ISZERO PUSH2 0x161C JUMPI PUSH2 0x161B PUSH2 0x104D JUMP JUMPDEST JUMPDEST PUSH1 0x20 DUP3 MUL SWAP1 POP SWAP2 SWAP1 POP JUMP JUMPDEST PUSH0 PUSH2 0x1639 PUSH2 0x1634 DUP5 PUSH2 0x1602 JUMP JUMPDEST PUSH2 0x10AB JUMP JUMPDEST SWAP1 POP DUP1 PUSH1 0x20 DUP5 MUL DUP4 ADD DUP6 DUP2 GT ISZERO PUSH2 0x1653 JUMPI PUSH2 0x1652 PUSH2 0x10F0 JUMP JUMPDEST JUMPDEST DUP4 JUMPDEST DUP2 DUP2 LT ISZERO PUSH2 0x167C JUMPI DUP1 PUSH2 0x1668 DUP9 DUP3 PUSH2 0xE59 JUMP JUMPDEST DUP5 MSTORE PUSH1 0x20 DUP5 ADD SWAP4 POP POP PUSH1 0x20 DUP2 ADD SWAP1 POP PUSH2 0x1655 JUMP JUMPDEST POP POP POP SWAP4 SWAP3 POP POP POP JUMP JUMPDEST PUSH0 DUP3 PUSH1 0x1F DUP4 ADD SLT PUSH2 0x169A JUMPI PUSH2 0x1699 PUSH2 0x1049 JUMP JUMPDEST JUMPDEST PUSH1 0x9 PUSH2 0x16A7 DUP5 DUP3 DUP6 PUSH2 0x1627 JUMP JUMPDEST SWAP2 POP POP SWAP3 SWAP2 POP POP JUMP JUMPDEST PUSH2 0x16B9 DUP2 PUSH2 0xDD6 JUMP JUMPDEST DUP2 EQ PUSH2 0x16C3 JUMPI PUSH0 DUP1 REVERT JUMPDEST POP JUMP JUMPDEST PUSH0 DUP2 CALLDATALOAD SWAP1 POP PUSH2 0x16D4 DUP2 PUSH2 0x16B0 JUMP JUMPDEST SWAP3 SWAP2 POP POP JUMP JUMPDEST PUSH0 DUP1 PUSH0 PUSH2 0x160 DUP5 DUP7 SUB SLT ISZERO PUSH2 0x16F2 JUMPI PUSH2 0x16F1 PUSH2 0xE3B JUMP JUMPDEST JUMPDEST PUSH0 PUSH2 0x16FF DUP7 DUP3 DUP8 ADD PUSH2 0x1686 JUMP JUMPDEST SWAP4 POP POP PUSH2 0x120 PUSH2 0x1711 DUP7 DUP3 DUP8 ADD PUSH2 0xE59 JUMP JUMPDEST SWAP3 POP POP PUSH2 0x140 PUSH2 0x1723 DUP7 DUP3 DUP8 ADD PUSH2 0x16C6 JUMP JUMPDEST SWAP2 POP POP SWAP3 POP SWAP3 POP SWAP3 JUMP JUMPDEST PUSH0 PUSH1 0x20 DUP3 DUP5 SUB SLT ISZERO PUSH2 0x1742 JUMPI PUSH2 0x1741 PUSH2 0xE3B JUMP JUMPDEST JUMPDEST PUSH0 PUSH2 0x174F DUP5 DUP3 DUP6 ADD PUSH2 0x16C6 JUMP JUMPDEST SWAP2 POP POP SWAP3 SWAP2 POP POP JUMP JUMPDEST PUSH32 0x4E487B7100000000000000000000000000000000000000000000000000000000 PUSH0 MSTORE PUSH1 0x22 PUSH1 0x4 MSTORE PUSH1 0x24 PUSH0 REVERT JUMPDEST PUSH0 PUSH1 0x2 DUP3 DIV SWAP1 POP PUSH1 0x1 DUP3 AND DUP1 PUSH2 0x179C JUMPI PUSH1 0x7F DUP3 AND SWAP2 POP JUMPDEST PUSH1 0x20 DUP3 LT DUP2 SUB PUSH2 0x17AF JUMPI PUSH2 0x17AE PUSH2 0x1758 JUMP JUMPDEST JUMPDEST POP SWAP2 SWAP1 POP JUMP JUMPDEST PUSH32 0x4E487B7100000000000000000000000000000000000000000000000000000000 PUSH0 MSTORE PUSH1 0x32 PUSH1 0x4 MSTORE PUSH1 0x24 PUSH0 REVERT JUMPDEST PUSH0 DUP2 SWAP1 POP DUP2 PUSH0 MSTORE PUSH1 0x20 PUSH0 KECCAK256 SWAP1 POP SWAP2 SWAP1 POP JUMP JUMPDEST PUSH0 PUSH1 0x20 PUSH1 0x1F DUP4 ADD DIV SWAP1 POP SWAP2 SWAP1 POP JUMP JUMPDEST PUSH0 DUP3 DUP3 SHL SWAP1 POP SWAP3 SWAP2 POP POP JUMP JUMPDEST PUSH0 PUSH1 0x8 DUP4 MUL PUSH2 0x183E PUSH32 0xFFFFFFFFFFFFFFFFFFFFFFFFFFFFFFFFFFFFFFFFFFFFFFFFFFFFFFFFFFFFFFFF DUP3 PUSH2 0x1803 JUMP JUMPDEST PUSH2 0x1848 DUP7 DUP4 PUSH2 0x1803 JUMP JUMPDEST SWAP6 POP DUP1 NOT DUP5 AND SWAP4 POP DUP1 DUP7 AND DUP5 OR SWAP3 POP POP POP SWAP4 SWAP3 POP POP POP JUMP JUMPDEST PUSH0 DUP2 SWAP1 POP SWAP2 SWAP1 POP JUMP JUMPDEST PUSH0 PUSH2 0x1883 PUSH2 0x187E PUSH2 0x1879 DUP5 PUSH2 0xCE8 JUMP JUMPDEST PUSH2 0x1860 JUMP JUMPDEST PUSH2 0xCE8 JUMP JUMPDEST SWAP1 POP SWAP2 SWAP1 POP JUMP JUMPDEST PUSH0 DUP2 SWAP1 POP SWAP2 SWAP1 POP JUMP JUMPDEST PUSH2 0x189C DUP4 PUSH2 0x1869 JUMP JUMPDEST PUSH2 0x18B0 PUSH2 0x18A8 DUP3 PUSH2 0x188A JUMP JUMPDEST DUP5 DUP5 SLOAD PUSH2 0x180F JUMP JUMPDEST DUP3 SSTORE POP POP POP POP JUMP JUMPDEST PUSH0 SWAP1 JUMP JUMPDEST PUSH2 0x18C4 PUSH2 0x18B8 JUMP JUMPDEST PUSH2 0x18CF DUP2 DUP5 DUP5 PUSH2 0x1893 JUMP JUMPDEST POP POP POP JUMP JUMPDEST JUMPDEST DUP2 DUP2 LT ISZERO PUSH2 0x18F2 JUMPI PUSH2 0x18E7 PUSH0 DUP3 PUSH2 0x18BC JUMP JUMPDEST PUSH1 0x1 DUP2 ADD SWAP1 POP PUSH2 0x18D5 JUMP JUMPDEST POP POP JUMP JUMPDEST PUSH1 0x1F DUP3 GT ISZERO PUSH2 0x1937 JUMPI PUSH2 0x1908 DUP2 PUSH2 0x17E2 JUMP JUMPDEST PUSH2 0x1911 DUP5 PUSH2 0x17F4 JUMP JUMPDEST DUP2 ADD PUSH1 0x20 DUP6 LT ISZERO PUSH2 0x1920 JUMPI DUP2 SWAP1 POP JUMPDEST PUSH2 0x1934 PUSH2 0x192C DUP6 PUSH2 0x17F4 JUMP JUMPDEST DUP4 ADD DUP3 PUSH2 0x18D4 JUMP JUMPDEST POP POP JUMPDEST POP POP POP JUMP JUMPDEST PUSH0 DUP3 DUP3 SHR SWAP1 POP SWAP3 SWAP2 POP POP JUMP JUMPDEST PUSH0 PUSH2 0x1957 PUSH0 NOT DUP5 PUSH1 0x8 MUL PUSH2 0x193C JUMP JUMPDEST NOT DUP1 DUP4 AND SWAP2 POP POP SWAP3 SWAP2 POP POP JUMP JUMPDEST PUSH0 PUSH2 0x196F DUP4 DUP4 PUSH2 0x1948 JUMP JUMPDEST SWAP2 POP DUP3 PUSH1 0x2 MUL DUP3 OR SWAP1 POP SWAP3 SWAP2 POP POP JUMP JUMPDEST PUSH2 0x1988 DUP3 PUSH2 0xEEF JUMP JUMPDEST PUSH8 0xFFFFFFFFFFFFFFFF DUP2 GT ISZERO PUSH2 0x19A1 JUMPI PUSH2 0x19A0 PUSH2 0x104D JUMP JUMPDEST JUMPDEST PUSH2 0x19AB DUP3 SLOAD PUSH2 0x1785 JUMP JUMPDEST PUSH2 0x19B6 DUP3 DUP3 DUP6 PUSH2 0x18F6 JUMP JUMPDEST PUSH0 PUSH1 0x20 SWAP1 POP PUSH1 0x1F DUP4 GT PUSH1 0x1 DUP2 EQ PUSH2 0x19E7 JUMPI PUSH0 DUP5 ISZERO PUSH2 0x19D5 JUMPI DUP3 DUP8 ADD MLOAD SWAP1 POP JUMPDEST PUSH2 0x19DF DUP6 DUP3 PUSH2 0x1964 JUMP JUMPDEST DUP7 SSTORE POP PUSH2 0x1A46 JUMP JUMPDEST PUSH1 0x1F NOT DUP5 AND PUSH2 0x19F5 DUP7 PUSH2 0x17E2 JUMP JUMPDEST PUSH0 JUMPDEST DUP3 DUP2 LT ISZERO PUSH2 0x1A1C JUMPI DUP5 DUP10 ADD MLOAD DUP3 SSTORE PUSH1 0x1 DUP3 ADD SWAP2 POP PUSH1 0x20 DUP6 ADD SWAP5 POP PUSH1 0x20 DUP2 ADD SWAP1 POP PUSH2 0x19F7 JUMP JUMPDEST DUP7 DUP4 LT ISZERO PUSH2 0x1A39 JUMPI DUP5 DUP10 ADD MLOAD PUSH2 0x1A35 PUSH1 0x1F DUP10 AND DUP3 PUSH2 0x1948 JUMP JUMPDEST DUP4 SSTORE POP JUMPDEST PUSH1 0x1 PUSH1 0x2 DUP9 MUL ADD DUP9 SSTORE POP POP POP JUMPDEST POP POP POP POP POP POP JUMP JUMPDEST PUSH32 0x4E487B7100000000000000000000000000000000000000000000000000000000 PUSH0 MSTORE PUSH1 0x12 PUSH1 0x4 MSTORE PUSH1 0x24 PUSH0 REVERT JUMPDEST PUSH0 PUSH2 0x1A85 DUP3 PUSH2 0xCE8 JUMP JUMPDEST SWAP2 POP PUSH2 0x1A90 DUP4 PUSH2 0xCE8 JUMP JUMPDEST SWAP3 POP DUP3 PUSH2 0x1AA0 JUMPI PUSH2 0x1A9F PUSH2 0x1A4E JUMP JUMPDEST JUMPDEST DUP3 DUP3 MOD SWAP1 POP SWAP3 SWAP2 POP POP JUMP JUMPDEST PUSH0 PUSH2 0x1AB5 DUP3 PUSH2 0xCE8 JUMP JUMPDEST SWAP2 POP PUSH2 0x1AC0 DUP4 PUSH2 0xCE8 JUMP JUMPDEST SWAP3 POP DUP3 PUSH2 0x1AD0 JUMPI PUSH2 0x1ACF PUSH2 0x1A4E JUMP JUMPDEST JUMPDEST DUP3 DUP3 DIV SWAP1 POP SWAP3 SWAP2 POP POP JUMP JUMPDEST PUSH32 0x556E61626C6520746F206D617463682070617468732C20506C65617365207472 PUSH0 DUP3 ADD MSTORE PUSH32 0x7920616761696E00000000000000000000000000000000000000000000000000 PUSH1 0x20 DUP3 ADD MSTORE POP JUMP JUMPDEST PUSH0 PUSH2 0x1B35 PUSH1 0x27 DUP4 PUSH2 0xFD3 JUMP JUMPDEST SWAP2 POP PUSH2 0x1B40 DUP3 PUSH2 0x1ADB JUMP JUMPDEST PUSH1 0x40 DUP3 ADD SWAP1 POP SWAP2 SWAP1 POP JUMP JUMPDEST PUSH0 PUSH1 0x20 DUP3 ADD SWAP1 POP DUP2 DUP2 SUB PUSH0 DUP4 ADD MSTORE PUSH2 0x1B62 DUP2 PUSH2 0x1B29 JUMP JUMPDEST SWAP1 POP SWAP2 SWAP1 POP JUMP JUMPDEST PUSH0 PUSH1 0x40 DUP3 ADD SWAP1 POP PUSH2 0x1B7C PUSH0 DUP4 ADD DUP6 PUSH2 0xDE7 JUMP JUMPDEST PUSH2 0x1B89 PUSH1 0x20 DUP4 ADD DUP5 PUSH2 0xCF1 JUMP JUMPDEST SWAP4 SWAP3 POP POP POP JUMP INVALID LOG2 PUSH5 0x6970667358 0x22 SLT KECCAK256 CREATE2 0xB8 BLOCKHASH SWAP7 PUSH20 0x72C7E5EEC4A604D8120C39ACD789DD17C3A9B281 0x5C 0x24 0xDA PUSH14 0xD6D38964736F6C63430008160033 "
		},
		"gasEstimates": {
			"creation": {
				"codeDepositCost": "1422000",
				"executionCost": "1484",
				"totalCost": "1423484"
			},
			"external": {
				"allNFTs(uint256)": "infinite",
				"checkParts(uint256[9],uint256,address)": "infinite",
				"checkWinner(uint256)": "2875",
				"createNFT(uint256,string[],uint256[])": "infinite",
				"extractValues(uint256)": "infinite",
				"getAllNFTs()": "infinite",
				"getListNFT()": "infinite",
				"getPartURI(uint256,uint256)": "infinite",
				"ownerNFT(address)": "infinite",
				"parts(uint256,uint256)": "infinite"
			},
			"internal": {
				"arePartsCorrect(uint256[9] memory,address)": "infinite",
				"rewardWinner(uint256)": "infinite"
			}
		},
		"methodIdentifiers": {
			"allNFTs(uint256)": "bf162d67",
			"checkParts(uint256[9],uint256,address)": "f67c8a59",
			"checkWinner(uint256)": "18854939",
			"createNFT(uint256,string[],uint256[])": "a7b7d3a7",
			"extractValues(uint256)": "bdb9db1a",
			"getAllNFTs()": "e0391b09",
			"getListNFT()": "114c57e5",
			"getPartURI(uint256,uint256)": "207a2dcd",
			"ownerNFT(address)": "fa294149",
			"parts(uint256,uint256)": "24574a60"
		}
	},
	"abi": [
		{
			"inputs": [],
			"stateMutability": "nonpayable",
			"type": "constructor"
		},
		{
			"anonymous": false,
			"inputs": [
				{
					"indexed": false,
					"internalType": "uint256",
					"name": "tokenId",
					"type": "uint256"
				},
				{
					"indexed": false,
					"internalType": "uint256[]",
					"name": "partIds",
					"type": "uint256[]"
				},
				{
					"indexed": false,
					"internalType": "address",
					"name": "owner",
					"type": "address"
				}
			],
			"name": "NFTCreated",
			"type": "event"
		},
		{
			"anonymous": false,
			"inputs": [
				{
					"indexed": false,
					"internalType": "uint256",
					"name": "tokenId",
					"type": "uint256"
				},
				{
					"indexed": false,
					"internalType": "uint256",
					"name": "partId",
					"type": "uint256"
				},
				{
					"indexed": false,
					"internalType": "string",
					"name": "newURI",
					"type": "string"
				}
			],
			"name": "PartURIUpdated",
			"type": "event"
		},
		{
			"anonymous": false,
			"inputs": [
				{
					"indexed": false,
					"internalType": "address",
					"name": "winner",
					"type": "address"
				},
				{
					"indexed": false,
					"internalType": "uint256",
					"name": "tokenId",
					"type": "uint256"
				}
			],
			"name": "WinnerRewarded",
			"type": "event"
		},
		{
			"inputs": [
				{
					"internalType": "uint256",
					"name": "",
					"type": "uint256"
				}
			],
			"name": "allNFTs",
			"outputs": [
				{
					"internalType": "uint256",
					"name": "tokenId",
					"type": "uint256"
				},
				{
					"internalType": "address",
					"name": "owner",
					"type": "address"
				}
			],
			"stateMutability": "view",
			"type": "function"
		},
		{
			"inputs": [
				{
					"internalType": "uint256[9]",
					"name": "_numbers",
					"type": "uint256[9]"
				},
				{
					"internalType": "uint256",
					"name": "_tokenId",
					"type": "uint256"
				},
				{
					"internalType": "address",
					"name": "owner",
					"type": "address"
				}
			],
			"name": "checkParts",
			"outputs": [],
			"stateMutability": "nonpayable",
			"type": "function"
		},
		{
			"inputs": [
				{
					"internalType": "uint256",
					"name": "_tokenId",
					"type": "uint256"
				}
			],
			"name": "checkWinner",
			"outputs": [
				{
					"internalType": "address",
					"name": "_winnerAddr",
					"type": "address"
				}
			],
			"stateMutability": "view",
			"type": "function"
		},
		{
			"inputs": [
				{
					"internalType": "uint256",
					"name": "tokenId",
					"type": "uint256"
				},
				{
					"internalType": "string[]",
					"name": "tokenURIs",
					"type": "string[]"
				},
				{
					"internalType": "uint256[]",
					"name": "_ids",
					"type": "uint256[]"
				}
			],
			"name": "createNFT",
			"outputs": [],
			"stateMutability": "nonpayable",
			"type": "function"
		},
		{
			"inputs": [
				{
					"internalType": "uint256",
					"name": "bigNumber",
					"type": "uint256"
				}
			],
			"name": "extractValues",
			"outputs": [
				{
					"internalType": "uint256[18]",
					"name": "",
					"type": "uint256[18]"
				}
			],
			"stateMutability": "pure",
			"type": "function"
		},
		{
			"inputs": [],
			"name": "getAllNFTs",
			"outputs": [
				{
					"components": [
						{
							"internalType": "uint256",
							"name": "tokenId",
							"type": "uint256"
						},
						{
							"internalType": "uint256[]",
							"name": "partIds",
							"type": "uint256[]"
						},
						{
							"internalType": "address",
							"name": "owner",
							"type": "address"
						}
					],
					"internalType": "struct NFTMarketplace.ListNFT[]",
					"name": "",
					"type": "tuple[]"
				}
			],
			"stateMutability": "view",
			"type": "function"
		},
		{
			"inputs": [],
			"name": "getListNFT",
			"outputs": [
				{
					"internalType": "uint256",
					"name": "",
					"type": "uint256"
				},
				{
					"internalType": "uint256[]",
					"name": "",
					"type": "uint256[]"
				},
				{
					"internalType": "address",
					"name": "",
					"type": "address"
				}
			],
			"stateMutability": "view",
			"type": "function"
		},
		{
			"inputs": [
				{
					"internalType": "uint256",
					"name": "tokenId",
					"type": "uint256"
				},
				{
					"internalType": "uint256",
					"name": "partId",
					"type": "uint256"
				}
			],
			"name": "getPartURI",
			"outputs": [
				{
					"components": [
						{
							"internalType": "uint256",
							"name": "id",
							"type": "uint256"
						},
						{
							"internalType": "string",
							"name": "url",
							"type": "string"
						}
					],
					"internalType": "struct NFTMarketplace.Part",
					"name": "",
					"type": "tuple"
				}
			],
			"stateMutability": "view",
			"type": "function"
		},
		{
			"inputs": [
				{
					"internalType": "address",
					"name": "",
					"type": "address"
				}
			],
			"name": "ownerNFT",
			"outputs": [
				{
					"internalType": "uint256",
					"name": "tokenId",
					"type": "uint256"
				},
				{
					"internalType": "address",
					"name": "owner",
					"type": "address"
				}
			],
			"stateMutability": "view",
			"type": "function"
		},
		{
			"inputs": [
				{
					"internalType": "uint256",
					"name": "",
					"type": "uint256"
				},
				{
					"internalType": "uint256",
					"name": "",
					"type": "uint256"
				}
			],
			"name": "parts",
			"outputs": [
				{
					"internalType": "uint256",
					"name": "id",
					"type": "uint256"
				},
				{
					"internalType": "string",
					"name": "url",
					"type": "string"
				}
			],
			"stateMutability": "view",
			"type": "function"
		}
	]
}